{
  "_format": "hh-sol-artifact-1",
  "contractName": "NFTMarketPlace",
  "sourceName": "contracts/NFTMarketPlace.sol",
  "abi": [
    {
      "inputs": [
        {
          "internalType": "string",
          "name": "name",
          "type": "string"
        },
        {
          "internalType": "string",
          "name": "symbol",
          "type": "string"
        }
      ],
      "stateMutability": "nonpayable",
      "type": "constructor"
    },
    {
      "inputs": [],
      "name": "ERC721EnumerableForbiddenBatchMint",
      "type": "error"
    },
    {
      "inputs": [
        {
          "internalType": "address",
          "name": "sender",
          "type": "address"
        },
        {
          "internalType": "uint256",
          "name": "tokenId",
          "type": "uint256"
        },
        {
          "internalType": "address",
          "name": "owner",
          "type": "address"
        }
      ],
      "name": "ERC721IncorrectOwner",
      "type": "error"
    },
    {
      "inputs": [
        {
          "internalType": "address",
          "name": "operator",
          "type": "address"
        },
        {
          "internalType": "uint256",
          "name": "tokenId",
          "type": "uint256"
        }
      ],
      "name": "ERC721InsufficientApproval",
      "type": "error"
    },
    {
      "inputs": [
        {
          "internalType": "address",
          "name": "approver",
          "type": "address"
        }
      ],
      "name": "ERC721InvalidApprover",
      "type": "error"
    },
    {
      "inputs": [
        {
          "internalType": "address",
          "name": "operator",
          "type": "address"
        }
      ],
      "name": "ERC721InvalidOperator",
      "type": "error"
    },
    {
      "inputs": [
        {
          "internalType": "address",
          "name": "owner",
          "type": "address"
        }
      ],
      "name": "ERC721InvalidOwner",
      "type": "error"
    },
    {
      "inputs": [
        {
          "internalType": "address",
          "name": "receiver",
          "type": "address"
        }
      ],
      "name": "ERC721InvalidReceiver",
      "type": "error"
    },
    {
      "inputs": [
        {
          "internalType": "address",
          "name": "sender",
          "type": "address"
        }
      ],
      "name": "ERC721InvalidSender",
      "type": "error"
    },
    {
      "inputs": [
        {
          "internalType": "uint256",
          "name": "tokenId",
          "type": "uint256"
        }
      ],
      "name": "ERC721NonexistentToken",
      "type": "error"
    },
    {
      "inputs": [
        {
          "internalType": "address",
          "name": "owner",
          "type": "address"
        },
        {
          "internalType": "uint256",
          "name": "index",
          "type": "uint256"
        }
      ],
      "name": "ERC721OutOfBoundsIndex",
      "type": "error"
    },
    {
      "inputs": [],
      "name": "EnforcedPause",
      "type": "error"
    },
    {
      "inputs": [],
      "name": "ExpectedPause",
      "type": "error"
    },
    {
      "inputs": [],
      "name": "InsufficientFunds",
      "type": "error"
    },
    {
      "inputs": [],
      "name": "NFTNotForSale",
      "type": "error"
    },
    {
      "inputs": [],
      "name": "NotOwnerOfNFT",
      "type": "error"
    },
    {
      "inputs": [
        {
          "internalType": "address",
          "name": "owner",
          "type": "address"
        }
      ],
      "name": "OwnableInvalidOwner",
      "type": "error"
    },
    {
      "inputs": [
        {
          "internalType": "address",
          "name": "account",
          "type": "address"
        }
      ],
      "name": "OwnableUnauthorizedAccount",
      "type": "error"
    },
    {
      "inputs": [],
      "name": "PriceMustBeGreaterThanZero",
      "type": "error"
    },
    {
      "inputs": [],
      "name": "ReentrancyGuardReentrantCall",
      "type": "error"
    },
    {
      "inputs": [],
      "name": "TransferFailed",
      "type": "error"
    },
    {
      "anonymous": false,
      "inputs": [
        {
          "indexed": true,
          "internalType": "address",
          "name": "owner",
          "type": "address"
        },
        {
          "indexed": true,
          "internalType": "address",
          "name": "approved",
          "type": "address"
        },
        {
          "indexed": true,
          "internalType": "uint256",
          "name": "tokenId",
          "type": "uint256"
        }
      ],
      "name": "Approval",
      "type": "event"
    },
    {
      "anonymous": false,
      "inputs": [
        {
          "indexed": true,
          "internalType": "address",
          "name": "owner",
          "type": "address"
        },
        {
          "indexed": true,
          "internalType": "address",
          "name": "operator",
          "type": "address"
        },
        {
          "indexed": false,
          "internalType": "bool",
          "name": "approved",
          "type": "bool"
        }
      ],
      "name": "ApprovalForAll",
      "type": "event"
    },
    {
      "anonymous": false,
      "inputs": [
        {
          "indexed": true,
          "internalType": "uint256",
          "name": "tokenId",
          "type": "uint256"
        },
        {
          "indexed": false,
          "internalType": "uint256",
          "name": "price",
          "type": "uint256"
        }
      ],
      "name": "NFTListedForSale",
      "type": "event"
    },
    {
      "anonymous": false,
      "inputs": [
        {
          "indexed": true,
          "internalType": "uint256",
          "name": "tokenId",
          "type": "uint256"
        },
        {
          "indexed": true,
          "internalType": "address",
          "name": "owner",
          "type": "address"
        }
      ],
      "name": "NFTMinted",
      "type": "event"
    },
    {
      "anonymous": false,
      "inputs": [
        {
          "indexed": true,
          "internalType": "uint256",
          "name": "tokenId",
          "type": "uint256"
        },
        {
          "indexed": true,
          "internalType": "address",
          "name": "buyer",
          "type": "address"
        },
        {
          "indexed": false,
          "internalType": "uint256",
          "name": "price",
          "type": "uint256"
        }
      ],
      "name": "NFTSold",
      "type": "event"
    },
    {
      "anonymous": false,
      "inputs": [
        {
          "indexed": true,
          "internalType": "address",
          "name": "previousOwner",
          "type": "address"
        },
        {
          "indexed": true,
          "internalType": "address",
          "name": "newOwner",
          "type": "address"
        }
      ],
      "name": "OwnershipTransferred",
      "type": "event"
    },
    {
      "anonymous": false,
      "inputs": [
        {
          "indexed": false,
          "internalType": "address",
          "name": "account",
          "type": "address"
        }
      ],
      "name": "Paused",
      "type": "event"
    },
    {
      "anonymous": false,
      "inputs": [
        {
          "indexed": true,
          "internalType": "address",
          "name": "from",
          "type": "address"
        },
        {
          "indexed": true,
          "internalType": "address",
          "name": "to",
          "type": "address"
        },
        {
          "indexed": true,
          "internalType": "uint256",
          "name": "tokenId",
          "type": "uint256"
        }
      ],
      "name": "Transfer",
      "type": "event"
    },
    {
      "anonymous": false,
      "inputs": [
        {
          "indexed": false,
          "internalType": "address",
          "name": "account",
          "type": "address"
        }
      ],
      "name": "Unpaused",
      "type": "event"
    },
    {
      "inputs": [
        {
          "internalType": "address",
          "name": "to",
          "type": "address"
        },
        {
          "internalType": "uint256",
          "name": "tokenId",
          "type": "uint256"
        }
      ],
      "name": "approve",
      "outputs": [],
      "stateMutability": "nonpayable",
      "type": "function"
    },
    {
      "inputs": [
        {
          "internalType": "address",
          "name": "owner",
          "type": "address"
        }
      ],
      "name": "balanceOf",
      "outputs": [
        {
          "internalType": "uint256",
          "name": "",
          "type": "uint256"
        }
      ],
      "stateMutability": "view",
      "type": "function"
    },
    {
      "inputs": [
        {
          "internalType": "uint256",
          "name": "tokenId",
          "type": "uint256"
        }
      ],
      "name": "buyNFT",
      "outputs": [],
      "stateMutability": "payable",
      "type": "function"
    },
    {
      "inputs": [
        {
          "internalType": "uint256",
          "name": "tokenId",
          "type": "uint256"
        }
      ],
      "name": "getApproved",
      "outputs": [
        {
          "internalType": "address",
          "name": "",
          "type": "address"
        }
      ],
      "stateMutability": "view",
      "type": "function"
    },
    {
      "inputs": [
        {
          "internalType": "uint256",
          "name": "tokenId",
          "type": "uint256"
        }
      ],
      "name": "getNFTDetails",
      "outputs": [
        {
          "internalType": "address",
          "name": "owner",
          "type": "address"
        },
        {
          "internalType": "uint256",
          "name": "price",
          "type": "uint256"
        },
        {
          "internalType": "bool",
          "name": "forSale",
          "type": "bool"
        }
      ],
      "stateMutability": "view",
      "type": "function"
    },
    {
      "inputs": [
        {
          "internalType": "address",
          "name": "owner",
          "type": "address"
        },
        {
          "internalType": "address",
          "name": "operator",
          "type": "address"
        }
      ],
      "name": "isApprovedForAll",
      "outputs": [
        {
          "internalType": "bool",
          "name": "",
          "type": "bool"
        }
      ],
      "stateMutability": "view",
      "type": "function"
    },
    {
      "inputs": [
        {
          "internalType": "uint256",
          "name": "tokenId",
          "type": "uint256"
        },
        {
          "internalType": "uint256",
          "name": "price",
          "type": "uint256"
        }
      ],
      "name": "listNFTForSale",
      "outputs": [],
      "stateMutability": "nonpayable",
      "type": "function"
    },
    {
      "inputs": [],
      "name": "mintNFT",
      "outputs": [
        {
          "internalType": "uint256",
          "name": "",
          "type": "uint256"
        }
      ],
      "stateMutability": "nonpayable",
      "type": "function"
    },
    {
      "inputs": [],
      "name": "name",
      "outputs": [
        {
          "internalType": "string",
          "name": "",
          "type": "string"
        }
      ],
      "stateMutability": "view",
      "type": "function"
    },
    {
      "inputs": [
        {
          "internalType": "uint256",
          "name": "",
          "type": "uint256"
        }
      ],
      "name": "nftsForSale",
      "outputs": [
        {
          "internalType": "uint256",
          "name": "tokenId",
          "type": "uint256"
        },
        {
          "internalType": "address",
          "name": "owner",
          "type": "address"
        },
        {
          "internalType": "uint256",
          "name": "price",
          "type": "uint256"
        },
        {
          "internalType": "bool",
          "name": "forSale",
          "type": "bool"
        }
      ],
      "stateMutability": "view",
      "type": "function"
    },
    {
      "inputs": [],
      "name": "owner",
      "outputs": [
        {
          "internalType": "address",
          "name": "",
          "type": "address"
        }
      ],
      "stateMutability": "view",
      "type": "function"
    },
    {
      "inputs": [
        {
          "internalType": "uint256",
          "name": "tokenId",
          "type": "uint256"
        }
      ],
      "name": "ownerOf",
      "outputs": [
        {
          "internalType": "address",
          "name": "",
          "type": "address"
        }
      ],
      "stateMutability": "view",
      "type": "function"
    },
    {
      "inputs": [],
      "name": "pause",
      "outputs": [],
      "stateMutability": "nonpayable",
      "type": "function"
    },
    {
      "inputs": [],
      "name": "paused",
      "outputs": [
        {
          "internalType": "bool",
          "name": "",
          "type": "bool"
        }
      ],
      "stateMutability": "view",
      "type": "function"
    },
    {
      "inputs": [
        {
          "internalType": "uint256",
          "name": "tokenId",
          "type": "uint256"
        }
      ],
      "name": "removeNFTFromSale",
      "outputs": [],
      "stateMutability": "nonpayable",
      "type": "function"
    },
    {
      "inputs": [],
      "name": "renounceOwnership",
      "outputs": [],
      "stateMutability": "nonpayable",
      "type": "function"
    },
    {
      "inputs": [
        {
          "internalType": "address",
          "name": "from",
          "type": "address"
        },
        {
          "internalType": "address",
          "name": "to",
          "type": "address"
        },
        {
          "internalType": "uint256",
          "name": "tokenId",
          "type": "uint256"
        }
      ],
      "name": "safeTransferFrom",
      "outputs": [],
      "stateMutability": "nonpayable",
      "type": "function"
    },
    {
      "inputs": [
        {
          "internalType": "address",
          "name": "from",
          "type": "address"
        },
        {
          "internalType": "address",
          "name": "to",
          "type": "address"
        },
        {
          "internalType": "uint256",
          "name": "tokenId",
          "type": "uint256"
        },
        {
          "internalType": "bytes",
          "name": "data",
          "type": "bytes"
        }
      ],
      "name": "safeTransferFrom",
      "outputs": [],
      "stateMutability": "nonpayable",
      "type": "function"
    },
    {
      "inputs": [
        {
          "internalType": "address",
          "name": "operator",
          "type": "address"
        },
        {
          "internalType": "bool",
          "name": "approved",
          "type": "bool"
        }
      ],
      "name": "setApprovalForAll",
      "outputs": [],
      "stateMutability": "nonpayable",
      "type": "function"
    },
    {
      "inputs": [
        {
          "internalType": "bytes4",
          "name": "interfaceId",
          "type": "bytes4"
        }
      ],
      "name": "supportsInterface",
      "outputs": [
        {
          "internalType": "bool",
          "name": "",
          "type": "bool"
        }
      ],
      "stateMutability": "view",
      "type": "function"
    },
    {
      "inputs": [],
      "name": "symbol",
      "outputs": [
        {
          "internalType": "string",
          "name": "",
          "type": "string"
        }
      ],
      "stateMutability": "view",
      "type": "function"
    },
    {
      "inputs": [
        {
          "internalType": "uint256",
          "name": "index",
          "type": "uint256"
        }
      ],
      "name": "tokenByIndex",
      "outputs": [
        {
          "internalType": "uint256",
          "name": "",
          "type": "uint256"
        }
      ],
      "stateMutability": "view",
      "type": "function"
    },
    {
      "inputs": [
        {
          "internalType": "address",
          "name": "owner",
          "type": "address"
        },
        {
          "internalType": "uint256",
          "name": "index",
          "type": "uint256"
        }
      ],
      "name": "tokenOfOwnerByIndex",
      "outputs": [
        {
          "internalType": "uint256",
          "name": "",
          "type": "uint256"
        }
      ],
      "stateMutability": "view",
      "type": "function"
    },
    {
      "inputs": [
        {
          "internalType": "uint256",
          "name": "tokenId",
          "type": "uint256"
        }
      ],
      "name": "tokenURI",
      "outputs": [
        {
          "internalType": "string",
          "name": "",
          "type": "string"
        }
      ],
      "stateMutability": "view",
      "type": "function"
    },
    {
      "inputs": [],
      "name": "totalSupply",
      "outputs": [
        {
          "internalType": "uint256",
          "name": "",
          "type": "uint256"
        }
      ],
      "stateMutability": "view",
      "type": "function"
    },
    {
      "inputs": [
        {
          "internalType": "address",
          "name": "from",
          "type": "address"
        },
        {
          "internalType": "address",
          "name": "to",
          "type": "address"
        },
        {
          "internalType": "uint256",
          "name": "tokenId",
          "type": "uint256"
        }
      ],
      "name": "transferFrom",
      "outputs": [],
      "stateMutability": "nonpayable",
      "type": "function"
    },
    {
      "inputs": [
        {
          "internalType": "address",
          "name": "newOwner",
          "type": "address"
        }
      ],
      "name": "transferOwnership",
      "outputs": [],
      "stateMutability": "nonpayable",
      "type": "function"
    },
    {
      "inputs": [],
      "name": "unpause",
      "outputs": [],
      "stateMutability": "nonpayable",
      "type": "function"
    }
  ],
  "bytecode": "0x60806040523480156200001157600080fd5b5060405162003d1738038062003d1783398181016040528101906200003791906200036b565b33828281600090816200004b91906200063b565b5080600190816200005d91906200063b565b5050506000600a60006101000a81548160ff021916908315150217905550600073ffffffffffffffffffffffffffffffffffffffff168173ffffffffffffffffffffffffffffffffffffffff1603620000f05760006040517f1e4fbdf7000000000000000000000000000000000000000000000000000000008152600401620000e7919062000767565b60405180910390fd5b62000101816200011260201b60201c565b506001600b81905550505062000784565b6000600a60019054906101000a900473ffffffffffffffffffffffffffffffffffffffff16905081600a60016101000a81548173ffffffffffffffffffffffffffffffffffffffff021916908373ffffffffffffffffffffffffffffffffffffffff1602179055508173ffffffffffffffffffffffffffffffffffffffff168173ffffffffffffffffffffffffffffffffffffffff167f8be0079c531659141344cd1fd0a4f28419497f9722a3daafe3b4186f6b6457e060405160405180910390a35050565b6000604051905090565b600080fd5b600080fd5b600080fd5b600080fd5b6000601f19601f8301169050919050565b7f4e487b7100000000000000000000000000000000000000000000000000000000600052604160045260246000fd5b6200024182620001f6565b810181811067ffffffffffffffff8211171562000263576200026262000207565b5b80604052505050565b600062000278620001d8565b905062000286828262000236565b919050565b600067ffffffffffffffff821115620002a957620002a862000207565b5b620002b482620001f6565b9050602081019050919050565b60005b83811015620002e1578082015181840152602081019050620002c4565b60008484015250505050565b600062000304620002fe846200028b565b6200026c565b905082815260208101848484011115620003235762000322620001f1565b5b62000330848285620002c1565b509392505050565b600082601f83011262000350576200034f620001ec565b5b815162000362848260208601620002ed565b91505092915050565b60008060408385031215620003855762000384620001e2565b5b600083015167ffffffffffffffff811115620003a657620003a5620001e7565b5b620003b48582860162000338565b925050602083015167ffffffffffffffff811115620003d857620003d7620001e7565b5b620003e68582860162000338565b9150509250929050565b600081519050919050565b7f4e487b7100000000000000000000000000000000000000000000000000000000600052602260045260246000fd5b600060028204905060018216806200044357607f821691505b602082108103620004595762000458620003fb565b5b50919050565b60008190508160005260206000209050919050565b60006020601f8301049050919050565b600082821b905092915050565b600060088302620004c37fffffffffffffffffffffffffffffffffffffffffffffffffffffffffffffffff8262000484565b620004cf868362000484565b95508019841693508086168417925050509392505050565b6000819050919050565b6000819050919050565b60006200051c620005166200051084620004e7565b620004f1565b620004e7565b9050919050565b6000819050919050565b6200053883620004fb565b62000550620005478262000523565b84845462000491565b825550505050565b600090565b6200056762000558565b620005748184846200052d565b505050565b5b818110156200059c57620005906000826200055d565b6001810190506200057a565b5050565b601f821115620005eb57620005b5816200045f565b620005c08462000474565b81016020851015620005d0578190505b620005e8620005df8562000474565b83018262000579565b50505b505050565b600082821c905092915050565b60006200061060001984600802620005f0565b1980831691505092915050565b60006200062b8383620005fd565b9150826002028217905092915050565b6200064682620003f0565b67ffffffffffffffff81111562000662576200066162000207565b5b6200066e82546200042a565b6200067b828285620005a0565b600060209050601f831160018114620006b357600084156200069e578287015190505b620006aa85826200061d565b8655506200071a565b601f198416620006c3866200045f565b60005b82811015620006ed57848901518255600182019150602085019450602081019050620006c6565b868310156200070d578489015162000709601f891682620005fd565b8355505b6001600288020188555050505b505050505050565b600073ffffffffffffffffffffffffffffffffffffffff82169050919050565b60006200074f8262000722565b9050919050565b620007618162000742565b82525050565b60006020820190506200077e600083018462000756565b92915050565b61358380620007946000396000f3fe6080604052600436106101b75760003560e01c80636352211e116100ec578063a02e51071161008a578063b88d4fde11610064578063b88d4fde14610602578063c87b56dd1461062b578063e985e9c514610668578063f2fde38b146106a5576101b7565b8063a02e510714610587578063a22cb465146105b0578063b2733b39146105d9576101b7565b806382260f35116100c657806382260f35146104db5780638456cb591461051a5780638da5cb5b1461053157806395d89b411461055c576101b7565b80636352211e1461044a57806370a0823114610487578063715018a6146104c4576101b7565b80632f745c591161015957806342842e0e1161013357806342842e0e1461039d5780634f6ccce7146103c657806351ed8288146104035780635c975abb1461041f576101b7565b80632f745c591461030957806337d327a1146103465780633f4ba83a14610386576101b7565b8063095ea7b311610195578063095ea7b31461026157806314f710fe1461028a57806318160ddd146102b557806323b872dd146102e0576101b7565b806301ffc9a7146101bc57806306fdde03146101f9578063081812fc14610224575b600080fd5b3480156101c857600080fd5b506101e360048036038101906101de9190612bd6565b6106ce565b6040516101f09190612c1e565b60405180910390f35b34801561020557600080fd5b5061020e6106e0565b60405161021b9190612cc9565b60405180910390f35b34801561023057600080fd5b5061024b60048036038101906102469190612d21565b610772565b6040516102589190612d8f565b60405180910390f35b34801561026d57600080fd5b5061028860048036038101906102839190612dd6565b61078e565b005b34801561029657600080fd5b5061029f6107a4565b6040516102ac9190612e25565b60405180910390f35b3480156102c157600080fd5b506102ca6108f8565b6040516102d79190612e25565b60405180910390f35b3480156102ec57600080fd5b5061030760048036038101906103029190612e40565b610905565b005b34801561031557600080fd5b50610330600480360381019061032b9190612dd6565b610a07565b60405161033d9190612e25565b60405180910390f35b34801561035257600080fd5b5061036d60048036038101906103689190612d21565b610ab0565b60405161037d9493929190612e93565b60405180910390f35b34801561039257600080fd5b5061039b610b0d565b005b3480156103a957600080fd5b506103c460048036038101906103bf9190612e40565b610b1f565b005b3480156103d257600080fd5b506103ed60048036038101906103e89190612d21565b610b3f565b6040516103fa9190612e25565b60405180910390f35b61041d60048036038101906104189190612d21565b610bb5565b005b34801561042b57600080fd5b50610434610d41565b6040516104419190612c1e565b60405180910390f35b34801561045657600080fd5b50610471600480360381019061046c9190612d21565b610d58565b60405161047e9190612d8f565b60405180910390f35b34801561049357600080fd5b506104ae60048036038101906104a99190612ed8565b610d6a565b6040516104bb9190612e25565b60405180910390f35b3480156104d057600080fd5b506104d9610e24565b005b3480156104e757600080fd5b5061050260048036038101906104fd9190612d21565b610e38565b60405161051193929190612f05565b60405180910390f35b34801561052657600080fd5b5061052f610e9d565b005b34801561053d57600080fd5b50610546610eaf565b6040516105539190612d8f565b60405180910390f35b34801561056857600080fd5b50610571610ed9565b60405161057e9190612cc9565b60405180910390f35b34801561059357600080fd5b506105ae60048036038101906105a99190612d21565b610f6b565b005b3480156105bc57600080fd5b506105d760048036038101906105d29190612f68565b610fbd565b005b3480156105e557600080fd5b5061060060048036038101906105fb9190612fa8565b610fd3565b005b34801561060e57600080fd5b506106296004803603810190610624919061311d565b611070565b005b34801561063757600080fd5b50610652600480360381019061064d9190612d21565b61108d565b60405161065f9190612cc9565b60405180910390f35b34801561067457600080fd5b5061068f600480360381019061068a91906131a0565b6110f6565b60405161069c9190612c1e565b60405180910390f35b3480156106b157600080fd5b506106cc60048036038101906106c79190612ed8565b61118a565b005b60006106d982611210565b9050919050565b6060600080546106ef9061320f565b80601f016020809104026020016040519081016040528092919081815260200182805461071b9061320f565b80156107685780601f1061073d57610100808354040283529160200191610768565b820191906000526020600020905b81548152906001019060200180831161074b57829003601f168201915b5050505050905090565b600061077d8261128a565b5061078782611312565b9050919050565b6107a0828261079b61134f565b611357565b5050565b60006107ae611369565b6107b66113f0565b6001600c60008282546107c9919061326f565b925050819055506000600c5490506107e13382611431565b60405180608001604052808281526020013373ffffffffffffffffffffffffffffffffffffffff1681526020016000815260200160001515815250600d60008381526020019081526020016000206000820151816000015560208201518160010160006101000a81548173ffffffffffffffffffffffffffffffffffffffff021916908373ffffffffffffffffffffffffffffffffffffffff1602179055506040820151816002015560608201518160030160006101000a81548160ff0219169083151502179055509050503373ffffffffffffffffffffffffffffffffffffffff16817f0176f203df400d7bd5f1b1c9ef36c16709bf3b5d9fd35f000a6bae32393f66c360405160405180910390a38091505090565b6000600880549050905090565b600073ffffffffffffffffffffffffffffffffffffffff168273ffffffffffffffffffffffffffffffffffffffff16036109775760006040517f64a0ae9200000000000000000000000000000000000000000000000000000000815260040161096e9190612d8f565b60405180910390fd5b600061098b838361098661134f565b61144f565b90508373ffffffffffffffffffffffffffffffffffffffff168173ffffffffffffffffffffffffffffffffffffffff1614610a01578382826040517f64283d7b0000000000000000000000000000000000000000000000000000000081526004016109f8939291906132a3565b60405180910390fd5b50505050565b6000610a1283610d6a565b8210610a575782826040517fa57d13dc000000000000000000000000000000000000000000000000000000008152600401610a4e9291906132da565b60405180910390fd5b600660008473ffffffffffffffffffffffffffffffffffffffff1673ffffffffffffffffffffffffffffffffffffffff168152602001908152602001600020600083815260200190815260200160002054905092915050565b600d6020528060005260406000206000915090508060000154908060010160009054906101000a900473ffffffffffffffffffffffffffffffffffffffff16908060020154908060030160009054906101000a900460ff16905084565b610b15611369565b610b1d611465565b565b610b3a83838360405180602001604052806000815250611070565b505050565b6000610b496108f8565b8210610b8f576000826040517fa57d13dc000000000000000000000000000000000000000000000000000000008152600401610b869291906132da565b60405180910390fd5b60088281548110610ba357610ba2613303565b5b90600052602060002001549050919050565b610bbd6114c8565b610bc56113f0565b610be0600d600083815260200190815260200160002061150e565b610bfc600d600083815260200190815260200160002034611559565b6000600d600083815260200190815260200160002060010160009054906101000a900473ffffffffffffffffffffffffffffffffffffffff16905033600d600084815260200190815260200160002060010160006101000a81548173ffffffffffffffffffffffffffffffffffffffff021916908373ffffffffffffffffffffffffffffffffffffffff1602179055506000600d600084815260200190815260200160002060030160006101000a81548160ff021916908315150217905550610cc681338461159b565b610cd08134611708565b3373ffffffffffffffffffffffffffffffffffffffff16827f6329e40c0365262ebbff5ca819385c2b9713dcaa050ed07866d72c441395699a600d600086815260200190815260200160002060020154604051610d2d9190612e25565b60405180910390a350610d3e6117b0565b50565b6000600a60009054906101000a900460ff16905090565b6000610d638261128a565b9050919050565b60008073ffffffffffffffffffffffffffffffffffffffff168273ffffffffffffffffffffffffffffffffffffffff1603610ddd5760006040517f89c62b64000000000000000000000000000000000000000000000000000000008152600401610dd49190612d8f565b60405180910390fd5b600360008373ffffffffffffffffffffffffffffffffffffffff1673ffffffffffffffffffffffffffffffffffffffff168152602001908152602001600020549050919050565b610e2c611369565b610e3660006117ba565b565b600080600080600d600086815260200190815260200160002090508060010160009054906101000a900473ffffffffffffffffffffffffffffffffffffffff1681600201548260030160009054906101000a900460ff16935093509350509193909250565b610ea5611369565b610ead611880565b565b6000600a60019054906101000a900473ffffffffffffffffffffffffffffffffffffffff16905090565b606060018054610ee89061320f565b80601f0160208091040260200160405190810160405280929190818152602001828054610f149061320f565b8015610f615780601f10610f3657610100808354040283529160200191610f61565b820191906000526020600020905b815481529060010190602001808311610f4457829003601f168201915b5050505050905090565b610f736113f0565b610f85610f7f82610d58565b336118e3565b6000600d6000838152602001908152602001600020905060008160030160006101000a81548160ff0219169083151502179055505050565b610fcf610fc861134f565b838361194c565b5050565b610fdb6113f0565b610fed610fe783610d58565b336118e3565b610ff681611abb565b6000600d6000848152602001908152602001600020905081816002018190555060018160030160006101000a81548160ff021916908315150217905550827fb969b31d52b858933f94bdced63814f41ae2fd801a036935359ab27bc095d579836040516110639190612e25565b60405180910390a2505050565b61107b848484610905565b61108784848484611af8565b50505050565b60606110988261128a565b5060006110a3611caf565b905060008151116110c357604051806020016040528060008152506110ee565b806110cd84611cc6565b6040516020016110de92919061336e565b6040516020818303038152906040525b915050919050565b6000600560008473ffffffffffffffffffffffffffffffffffffffff1673ffffffffffffffffffffffffffffffffffffffff16815260200190815260200160002060008373ffffffffffffffffffffffffffffffffffffffff1673ffffffffffffffffffffffffffffffffffffffff16815260200190815260200160002060009054906101000a900460ff16905092915050565b611192611369565b600073ffffffffffffffffffffffffffffffffffffffff168173ffffffffffffffffffffffffffffffffffffffff16036112045760006040517f1e4fbdf70000000000000000000000000000000000000000000000000000000081526004016111fb9190612d8f565b60405180910390fd5b61120d816117ba565b50565b60007f780e9d63000000000000000000000000000000000000000000000000000000007bffffffffffffffffffffffffffffffffffffffffffffffffffffffff1916827bffffffffffffffffffffffffffffffffffffffffffffffffffffffff19161480611283575061128282611d94565b5b9050919050565b60008061129683611e76565b9050600073ffffffffffffffffffffffffffffffffffffffff168173ffffffffffffffffffffffffffffffffffffffff160361130957826040517f7e2732890000000000000000000000000000000000000000000000000000000081526004016113009190612e25565b60405180910390fd5b80915050919050565b60006004600083815260200190815260200160002060009054906101000a900473ffffffffffffffffffffffffffffffffffffffff169050919050565b600033905090565b6113648383836001611eb3565b505050565b61137161134f565b73ffffffffffffffffffffffffffffffffffffffff1661138f610eaf565b73ffffffffffffffffffffffffffffffffffffffff16146113ee576113b261134f565b6040517f118cdaa70000000000000000000000000000000000000000000000000000000081526004016113e59190612d8f565b60405180910390fd5b565b6113f8610d41565b1561142f576040517fd93c066500000000000000000000000000000000000000000000000000000000815260040160405180910390fd5b565b61144b828260405180602001604052806000815250612078565b5050565b600061145c848484612094565b90509392505050565b61146d6120b2565b6000600a60006101000a81548160ff0219169083151502179055507f5db9ee0a495bf2e6ff9c91a7834c1ba4fdd244a5e8aa4e537bd38aeae4b073aa6114b161134f565b6040516114be9190612d8f565b60405180910390a1565b6002600b5403611504576040517f3ee5aeb500000000000000000000000000000000000000000000000000000000815260040160405180910390fd5b6002600b81905550565b8060030160009054906101000a900460ff16611556576040517fd135e8bd00000000000000000000000000000000000000000000000000000000815260040160405180910390fd5b50565b8160020154811015611597576040517f356680b700000000000000000000000000000000000000000000000000000000815260040160405180910390fd5b5050565b600073ffffffffffffffffffffffffffffffffffffffff168273ffffffffffffffffffffffffffffffffffffffff160361160d5760006040517f64a0ae920000000000000000000000000000000000000000000000000000000081526004016116049190612d8f565b60405180910390fd5b600061161b8383600061144f565b9050600073ffffffffffffffffffffffffffffffffffffffff168173ffffffffffffffffffffffffffffffffffffffff160361168e57816040517f7e2732890000000000000000000000000000000000000000000000000000000081526004016116859190612e25565b60405180910390fd5b8373ffffffffffffffffffffffffffffffffffffffff168173ffffffffffffffffffffffffffffffffffffffff1614611702578382826040517f64283d7b0000000000000000000000000000000000000000000000000000000081526004016116f9939291906132a3565b60405180910390fd5b50505050565b60008273ffffffffffffffffffffffffffffffffffffffff168260405161172e906133c3565b60006040518083038185875af1925050503d806000811461176b576040519150601f19603f3d011682016040523d82523d6000602084013e611770565b606091505b50509050806117ab576040517f90b8ec1800000000000000000000000000000000000000000000000000000000815260040160405180910390fd5b505050565b6001600b81905550565b6000600a60019054906101000a900473ffffffffffffffffffffffffffffffffffffffff16905081600a60016101000a81548173ffffffffffffffffffffffffffffffffffffffff021916908373ffffffffffffffffffffffffffffffffffffffff1602179055508173ffffffffffffffffffffffffffffffffffffffff168173ffffffffffffffffffffffffffffffffffffffff167f8be0079c531659141344cd1fd0a4f28419497f9722a3daafe3b4186f6b6457e060405160405180910390a35050565b6118886113f0565b6001600a60006101000a81548160ff0219169083151502179055507f62e78cea01bee320cd4e420270b5ea74000d11b0c9f74754ebdbfc544b05a2586118cc61134f565b6040516118d99190612d8f565b60405180910390a1565b8073ffffffffffffffffffffffffffffffffffffffff168273ffffffffffffffffffffffffffffffffffffffff1614611948576040517f84b359d100000000000000000000000000000000000000000000000000000000815260040160405180910390fd5b5050565b600073ffffffffffffffffffffffffffffffffffffffff168273ffffffffffffffffffffffffffffffffffffffff16036119bd57816040517f5b08ba180000000000000000000000000000000000000000000000000000000081526004016119b49190612d8f565b60405180910390fd5b80600560008573ffffffffffffffffffffffffffffffffffffffff1673ffffffffffffffffffffffffffffffffffffffff16815260200190815260200160002060008473ffffffffffffffffffffffffffffffffffffffff1673ffffffffffffffffffffffffffffffffffffffff16815260200190815260200160002060006101000a81548160ff0219169083151502179055508173ffffffffffffffffffffffffffffffffffffffff168373ffffffffffffffffffffffffffffffffffffffff167f17307eab39ab6107e8899845ad3d59bd9653f200f220920489ca2b5937696c3183604051611aae9190612c1e565b60405180910390a3505050565b60008111611af5576040517f23a3620900000000000000000000000000000000000000000000000000000000815260040160405180910390fd5b50565b60008373ffffffffffffffffffffffffffffffffffffffff163b1115611ca9578273ffffffffffffffffffffffffffffffffffffffff1663150b7a02611b3c61134f565b8685856040518563ffffffff1660e01b8152600401611b5e949392919061342d565b6020604051808303816000875af1925050508015611b9a57506040513d601f19601f82011682018060405250810190611b97919061348e565b60015b611c1e573d8060008114611bca576040519150601f19603f3d011682016040523d82523d6000602084013e611bcf565b606091505b506000815103611c1657836040517f64a0ae92000000000000000000000000000000000000000000000000000000008152600401611c0d9190612d8f565b60405180910390fd5b805181602001fd5b63150b7a0260e01b7bffffffffffffffffffffffffffffffffffffffffffffffffffffffff1916817bffffffffffffffffffffffffffffffffffffffffffffffffffffffff191614611ca757836040517f64a0ae92000000000000000000000000000000000000000000000000000000008152600401611c9e9190612d8f565b60405180910390fd5b505b50505050565b606060405180602001604052806000815250905090565b606060006001611cd5846120f2565b01905060008167ffffffffffffffff811115611cf457611cf3612ff2565b5b6040519080825280601f01601f191660200182016040528015611d265781602001600182028036833780820191505090505b509050600082602001820190505b600115611d89578080600190039150507f3031323334353637383961626364656600000000000000000000000000000000600a86061a8153600a8581611d7d57611d7c6134bb565b5b04945060008503611d34575b819350505050919050565b60007f80ac58cd000000000000000000000000000000000000000000000000000000007bffffffffffffffffffffffffffffffffffffffffffffffffffffffff1916827bffffffffffffffffffffffffffffffffffffffffffffffffffffffff19161480611e5f57507f5b5e139f000000000000000000000000000000000000000000000000000000007bffffffffffffffffffffffffffffffffffffffffffffffffffffffff1916827bffffffffffffffffffffffffffffffffffffffffffffffffffffffff1916145b80611e6f5750611e6e82612245565b5b9050919050565b60006002600083815260200190815260200160002060009054906101000a900473ffffffffffffffffffffffffffffffffffffffff169050919050565b8080611eec5750600073ffffffffffffffffffffffffffffffffffffffff168273ffffffffffffffffffffffffffffffffffffffff1614155b15612020576000611efc8461128a565b9050600073ffffffffffffffffffffffffffffffffffffffff168373ffffffffffffffffffffffffffffffffffffffff1614158015611f6757508273ffffffffffffffffffffffffffffffffffffffff168173ffffffffffffffffffffffffffffffffffffffff1614155b8015611f7a5750611f7881846110f6565b155b15611fbc57826040517fa9fbf51f000000000000000000000000000000000000000000000000000000008152600401611fb39190612d8f565b60405180910390fd5b811561201e57838573ffffffffffffffffffffffffffffffffffffffff168273ffffffffffffffffffffffffffffffffffffffff167f8c5be1e5ebec7d5bd14f71427d1e84f3dd0314c0f7b2291e5b200ac8c7c3b92560405160405180910390a45b505b836004600085815260200190815260200160002060006101000a81548173ffffffffffffffffffffffffffffffffffffffff021916908373ffffffffffffffffffffffffffffffffffffffff16021790555050505050565b61208283836122af565b61208f6000848484611af8565b505050565b600061209e6113f0565b6120a98484846123a8565b90509392505050565b6120ba610d41565b6120f0576040517f8dfc202b00000000000000000000000000000000000000000000000000000000815260040160405180910390fd5b565b600080600090507a184f03e93ff9f4daa797ed6e38ed64bf6a1f0100000000000000008310612150577a184f03e93ff9f4daa797ed6e38ed64bf6a1f0100000000000000008381612146576121456134bb565b5b0492506040810190505b6d04ee2d6d415b85acef8100000000831061218d576d04ee2d6d415b85acef81000000008381612183576121826134bb565b5b0492506020810190505b662386f26fc1000083106121bc57662386f26fc1000083816121b2576121b16134bb565b5b0492506010810190505b6305f5e10083106121e5576305f5e10083816121db576121da6134bb565b5b0492506008810190505b612710831061220a576127108381612200576121ff6134bb565b5b0492506004810190505b6064831061222d5760648381612223576122226134bb565b5b0492506002810190505b600a831061223c576001810190505b80915050919050565b60007f01ffc9a7000000000000000000000000000000000000000000000000000000007bffffffffffffffffffffffffffffffffffffffffffffffffffffffff1916827bffffffffffffffffffffffffffffffffffffffffffffffffffffffff1916149050919050565b600073ffffffffffffffffffffffffffffffffffffffff168273ffffffffffffffffffffffffffffffffffffffff16036123215760006040517f64a0ae920000000000000000000000000000000000000000000000000000000081526004016123189190612d8f565b60405180910390fd5b600061232f8383600061144f565b9050600073ffffffffffffffffffffffffffffffffffffffff168173ffffffffffffffffffffffffffffffffffffffff16146123a35760006040517f73c6ac6e00000000000000000000000000000000000000000000000000000000815260040161239a9190612d8f565b60405180910390fd5b505050565b6000806123b68585856124c5565b9050600073ffffffffffffffffffffffffffffffffffffffff168173ffffffffffffffffffffffffffffffffffffffff16036123fa576123f5846126df565b612439565b8473ffffffffffffffffffffffffffffffffffffffff168173ffffffffffffffffffffffffffffffffffffffff1614612438576124378185612728565b5b5b600073ffffffffffffffffffffffffffffffffffffffff168573ffffffffffffffffffffffffffffffffffffffff160361247b5761247684612889565b6124ba565b8473ffffffffffffffffffffffffffffffffffffffff168173ffffffffffffffffffffffffffffffffffffffff16146124b9576124b8858561295a565b5b5b809150509392505050565b6000806124d184611e76565b9050600073ffffffffffffffffffffffffffffffffffffffff168373ffffffffffffffffffffffffffffffffffffffff1614612513576125128184866129e5565b5b600073ffffffffffffffffffffffffffffffffffffffff168173ffffffffffffffffffffffffffffffffffffffff16146125a457612555600085600080611eb3565b6001600360008373ffffffffffffffffffffffffffffffffffffffff1673ffffffffffffffffffffffffffffffffffffffff168152602001908152602001600020600082825403925050819055505b600073ffffffffffffffffffffffffffffffffffffffff168573ffffffffffffffffffffffffffffffffffffffff1614612627576001600360008773ffffffffffffffffffffffffffffffffffffffff1673ffffffffffffffffffffffffffffffffffffffff168152602001908152602001600020600082825401925050819055505b846002600086815260200190815260200160002060006101000a81548173ffffffffffffffffffffffffffffffffffffffff021916908373ffffffffffffffffffffffffffffffffffffffff160217905550838573ffffffffffffffffffffffffffffffffffffffff168273ffffffffffffffffffffffffffffffffffffffff167fddf252ad1be2c89b69c2b068fc378daa952ba7f163c4a11628f55a4df523b3ef60405160405180910390a4809150509392505050565b6008805490506009600083815260200190815260200160002081905550600881908060018154018082558091505060019003906000526020600020016000909190919091505550565b600061273383610d6a565b9050600060076000848152602001908152602001600020549050818114612818576000600660008673ffffffffffffffffffffffffffffffffffffffff1673ffffffffffffffffffffffffffffffffffffffff168152602001908152602001600020600084815260200190815260200160002054905080600660008773ffffffffffffffffffffffffffffffffffffffff1673ffffffffffffffffffffffffffffffffffffffff168152602001908152602001600020600084815260200190815260200160002081905550816007600083815260200190815260200160002081905550505b6007600084815260200190815260200160002060009055600660008573ffffffffffffffffffffffffffffffffffffffff1673ffffffffffffffffffffffffffffffffffffffff16815260200190815260200160002060008381526020019081526020016000206000905550505050565b6000600160088054905061289d91906134ea565b90506000600960008481526020019081526020016000205490506000600883815481106128cd576128cc613303565b5b9060005260206000200154905080600883815481106128ef576128ee613303565b5b90600052602060002001819055508160096000838152602001908152602001600020819055506009600085815260200190815260200160002060009055600880548061293e5761293d61351e565b5b6001900381819060005260206000200160009055905550505050565b6000600161296784610d6a565b61297191906134ea565b905081600660008573ffffffffffffffffffffffffffffffffffffffff1673ffffffffffffffffffffffffffffffffffffffff168152602001908152602001600020600083815260200190815260200160002081905550806007600084815260200190815260200160002081905550505050565b6129f0838383612aa9565b612aa457600073ffffffffffffffffffffffffffffffffffffffff168373ffffffffffffffffffffffffffffffffffffffff1603612a6557806040517f7e273289000000000000000000000000000000000000000000000000000000008152600401612a5c9190612e25565b60405180910390fd5b81816040517f177e802f000000000000000000000000000000000000000000000000000000008152600401612a9b9291906132da565b60405180910390fd5b505050565b60008073ffffffffffffffffffffffffffffffffffffffff168373ffffffffffffffffffffffffffffffffffffffff1614158015612b6157508273ffffffffffffffffffffffffffffffffffffffff168473ffffffffffffffffffffffffffffffffffffffff161480612b225750612b2184846110f6565b5b80612b6057508273ffffffffffffffffffffffffffffffffffffffff16612b4883611312565b73ffffffffffffffffffffffffffffffffffffffff16145b5b90509392505050565b6000604051905090565b600080fd5b600080fd5b60007fffffffff0000000000000000000000000000000000000000000000000000000082169050919050565b612bb381612b7e565b8114612bbe57600080fd5b50565b600081359050612bd081612baa565b92915050565b600060208284031215612bec57612beb612b74565b5b6000612bfa84828501612bc1565b91505092915050565b60008115159050919050565b612c1881612c03565b82525050565b6000602082019050612c336000830184612c0f565b92915050565b600081519050919050565b600082825260208201905092915050565b60005b83811015612c73578082015181840152602081019050612c58565b60008484015250505050565b6000601f19601f8301169050919050565b6000612c9b82612c39565b612ca58185612c44565b9350612cb5818560208601612c55565b612cbe81612c7f565b840191505092915050565b60006020820190508181036000830152612ce38184612c90565b905092915050565b6000819050919050565b612cfe81612ceb565b8114612d0957600080fd5b50565b600081359050612d1b81612cf5565b92915050565b600060208284031215612d3757612d36612b74565b5b6000612d4584828501612d0c565b91505092915050565b600073ffffffffffffffffffffffffffffffffffffffff82169050919050565b6000612d7982612d4e565b9050919050565b612d8981612d6e565b82525050565b6000602082019050612da46000830184612d80565b92915050565b612db381612d6e565b8114612dbe57600080fd5b50565b600081359050612dd081612daa565b92915050565b60008060408385031215612ded57612dec612b74565b5b6000612dfb85828601612dc1565b9250506020612e0c85828601612d0c565b9150509250929050565b612e1f81612ceb565b82525050565b6000602082019050612e3a6000830184612e16565b92915050565b600080600060608486031215612e5957612e58612b74565b5b6000612e6786828701612dc1565b9350506020612e7886828701612dc1565b9250506040612e8986828701612d0c565b9150509250925092565b6000608082019050612ea86000830187612e16565b612eb56020830186612d80565b612ec26040830185612e16565b612ecf6060830184612c0f565b95945050505050565b600060208284031215612eee57612eed612b74565b5b6000612efc84828501612dc1565b91505092915050565b6000606082019050612f1a6000830186612d80565b612f276020830185612e16565b612f346040830184612c0f565b949350505050565b612f4581612c03565b8114612f5057600080fd5b50565b600081359050612f6281612f3c565b92915050565b60008060408385031215612f7f57612f7e612b74565b5b6000612f8d85828601612dc1565b9250506020612f9e85828601612f53565b9150509250929050565b60008060408385031215612fbf57612fbe612b74565b5b6000612fcd85828601612d0c565b9250506020612fde85828601612d0c565b9150509250929050565b600080fd5b600080fd5b7f4e487b7100000000000000000000000000000000000000000000000000000000600052604160045260246000fd5b61302a82612c7f565b810181811067ffffffffffffffff8211171561304957613048612ff2565b5b80604052505050565b600061305c612b6a565b90506130688282613021565b919050565b600067ffffffffffffffff82111561308857613087612ff2565b5b61309182612c7f565b9050602081019050919050565b82818337600083830152505050565b60006130c06130bb8461306d565b613052565b9050828152602081018484840111156130dc576130db612fed565b5b6130e784828561309e565b509392505050565b600082601f83011261310457613103612fe8565b5b81356131148482602086016130ad565b91505092915050565b6000806000806080858703121561313757613136612b74565b5b600061314587828801612dc1565b945050602061315687828801612dc1565b935050604061316787828801612d0c565b925050606085013567ffffffffffffffff81111561318857613187612b79565b5b613194878288016130ef565b91505092959194509250565b600080604083850312156131b7576131b6612b74565b5b60006131c585828601612dc1565b92505060206131d685828601612dc1565b9150509250929050565b7f4e487b7100000000000000000000000000000000000000000000000000000000600052602260045260246000fd5b6000600282049050600182168061322757607f821691505b60208210810361323a576132396131e0565b5b50919050565b7f4e487b7100000000000000000000000000000000000000000000000000000000600052601160045260246000fd5b600061327a82612ceb565b915061328583612ceb565b925082820190508082111561329d5761329c613240565b5b92915050565b60006060820190506132b86000830186612d80565b6132c56020830185612e16565b6132d26040830184612d80565b949350505050565b60006040820190506132ef6000830185612d80565b6132fc6020830184612e16565b9392505050565b7f4e487b7100000000000000000000000000000000000000000000000000000000600052603260045260246000fd5b600081905092915050565b600061334882612c39565b6133528185613332565b9350613362818560208601612c55565b80840191505092915050565b600061337a828561333d565b9150613386828461333d565b91508190509392505050565b600081905092915050565b50565b60006133ad600083613392565b91506133b88261339d565b600082019050919050565b60006133ce826133a0565b9150819050919050565b600081519050919050565b600082825260208201905092915050565b60006133ff826133d8565b61340981856133e3565b9350613419818560208601612c55565b61342281612c7f565b840191505092915050565b60006080820190506134426000830187612d80565b61344f6020830186612d80565b61345c6040830185612e16565b818103606083015261346e81846133f4565b905095945050505050565b60008151905061348881612baa565b92915050565b6000602082840312156134a4576134a3612b74565b5b60006134b284828501613479565b91505092915050565b7f4e487b7100000000000000000000000000000000000000000000000000000000600052601260045260246000fd5b60006134f582612ceb565b915061350083612ceb565b925082820390508181111561351857613517613240565b5b92915050565b7f4e487b7100000000000000000000000000000000000000000000000000000000600052603160045260246000fdfea2646970667358221220e3ecade3d78f7b4f4b6cba7c7ce5930ec2f3c4ae6e49675add2dbc131fa6be0364736f6c63430008180033",
  "linkReferences": {},
  "deployedLinkReferences": {}
}